A836558810333038595386MOGD851014                     MOLINA$GRANADOS$DALIA ELIZABETH                   1005112012005163361532                      00000000000000000
A836558810335917514685QUPG750812                     QUEZADA$PALMA$GALO CESAR                          1013112012006876361533                      00000000000000000
A836558810333988262334GOCV820406                     GONZALEZ$CHAIDEZ$VICTOR HUGO                      1015112012005163361534                      00000000000000000
A836558810333856727533TEXA671117                     TERRAZAS$$ALFONSO                                 1019112012006876361535                      00000000000000000
A836558810333058761256MAEU870505                     MACIAS$ESQUIVEL$ULISES                            1020112012000992961536                      00000000000000000
A836558810333109002072SOSO900921                     SOLORZANO$SANCHEZ$OSCAR ALBERTO                   10051120120007316MA11106250                 00000000000000000
A836558810333119229210EOAM920929                     ESCOBEDO$ARROYO$MIGUEL ANGEL                      10051120120008884MB11117564                 00000000000000000
A836558810333068897165AERD880626                     ACEVES$RODRIGUEZ$DAMARIS                          10121120120019858MC09080010                 00000000000000000
A836558810367887171741PAMJ711127                     PATRACA$MENDOZA$JUAN                              10191120120012542MC09100186                 00000000000000000
A836558810367099004177UEGJ900314                     URE베$GERONIMO$JESUS IGNACIO                      10051120120007316MC10112826                 00000000000000000
A836558810335079029415MOER901227                     MORENO$ESPINO$ROBERTO                             10251020120012542MC12108870                 00000000000000000
A836558810333089041660AEGP900629                     ALEMAN$GARCIA$PEDRO OSVALDO                       10011120120008884MC12108890                 00000000000000000
A836558810333058842791FAVA880808                     FAVELA$VENEGAS$ADA VIRIDIANA                      10051120120007316MC12118891                 00000000000000000
A836558810335129317133GAHJ930312                     GARCIA$HERNANDEZ$JESUS ALBERTO                    10051120120007316MC12118892                 00000000000000000
A836558810333836680646VINL680125                     VILLALOBOS$NU벤Z$MARIA LORENZA                    10051120120007316MC12118893                 00000000000000000
A836558810333079177417MOSL910908                     MORENO$SAUCEDO$MARIA LUISA                        10051120120007316MC12118894                 00000000000000000
A836558810333957992259IAVE810519                     IBARRA$VARGAS$ERICA                               10051120120007316MC12118895                 00000000000000000
A836558810333109330630YATS930206                     YA벤Z$TOVAR$SERGIO ALBERTO                        10051120120007316MC12118896                 00000000000000000
A836558810333816415534MEFA640118                     MEDRANO$FLORES$ANA MARIA                          10051120120008884MC12118897                 00000000000000000
A836558810333038735420AERN870801                     ARELLANO$RIVAS$NALLELY ESKIOL                     10051120120008884MC12118898                 00000000000000000
A836558810333927130741AUVO711017                     AGUILAR$VARGAS$OSCAR ENRIQUE                      10051120120008884MC12118899                 00000000000000000
A836558810333109211673MOHL920329                     MONTES$HERRERA$LAURA YESENIA                      10051120120008884MC12118900                 00000000000000000
A836558810333846513753GASR650315                     GARCIA$SARMIENTO$RAYMUNDO                         10051120120008884MC12118901                 00000000000000000
A836558810335978002109RERA800515                     REYES$REYES$MARIA AMPARO                          10061120120007316MC12118902                 00000000000000000
A836558810333119401835AOSG940521                     ACOSTA$SAENZ$GUSTAVO                              10061120120007316MC12118903                 00000000000000000
A836558810333079146925JAJW910430                     JACINTO$JACOBO$WILLIAM                            10061120120007316MC12118904                 00000000000000000
A836558810331028436157ROCM840602                     ROQUE$CHAVARRIA$JOSE MARCELINO                    10061120120007316MC12118905                 00000000000000000
A836558810333109103821FICL910820                     FIGUEROA$CHAVEZ$LUIS ISAAC                        10061120120007316MC12118906                 00000000000000000
A836558810335079040255RAVF901218                     RAMIREZ$VALLES$FRANCISCO DANIEL                   10061120120007316MC12118907                 00000000000000000
A836558810335988141111GASC811120                     GAYTAN$SOTO$CHRISTIAN                             10061120120007316MC12118908                 00000000000000000
A836558810333089226717ROMD921029                     RODRIGUEZ$MATA$DANIELA ESTHEPANIA                 10061120120007316MC12118909                 00000000000000000
A836558810333947474210GOCS740625                     GONZALEZ$CAMPA$SERGIO                             10061120120007316MC12118910                 00000000000000000
A836558810331078932568CUMF890828                     DE LA CRUZ$MENDEZ$FRANCISCO                       10061120120007316MC12118911                 00000000000000000
A836558810335988143570CUAR820930                     CRUZ$AVITIA$ROSA ANGELICA                         10061120120007316MC12118912                 00000000000000000
A836558810333038533247LOGK850603                     LOPEZ$GAMEZ$KARLA MARIA                           10061120120007316MC12118913                 00000000000000000
A836558810333129313939LULK931212                     LUEVANO$LOPEZ$KARLA GUADALUPE                     10061120120007316MC12118914                 00000000000000000
A836558810333077102318AAGJ710522                     ALDAVA$GURROLA$JOSE                               10061120120007316MC12118915                 00000000000000000
A836558810335079021156MAIA900703                     MARQUEZ$IRIGOYEN$ADRIAN                           10061120120007316MC12118916                 00000000000000000
A836558810333119214071LOAR921109                     LOPEZ$ARELLANO$REYES OMAR                         10061120120007316MC12118917                 00000000000000000
A836558810333018498312SAVD841015                     SANTOS$VALADEZ$DAGOBERTO                          10061120120007316MC12118918                 00000000000000000
A836558810335129445900NOTJ940703                     NORIEGA$TERRONES$JESUS ROMAN                      10061120120008884MC12118919                 00000000000000000
A836558810333897351574BEOJ740312                     BERNAL$OLIVARES$JUANA ELIZABETH                   10061120120007316MC12118920                 00000000000000000
A836558810332069017211GORJ900629                     GONZALEZ$RAMIREZ$JOSUE ISRAEL                     10071120120007316MC12118921                 00000000000000000
A836558810335129431777PACA940416                     PALACIOS$CRUZ$ADELINA ITZEL                       10071120120007316MC12118922                 00000000000000000
A836558810333109214958QUGR920203                     QUI벮NES$GARCIA$RAUL ALBERTO                      10071120120007316MC12118923                 00000000000000000
A836558810333119380658HERC931118                     HERNANDEZ$RODRIGUEZ$CHRISTOPHER                   10071120120007316MC12118924                 00000000000000000
A836558810335968003463MANL800304                     MARTINEZ$NAVA$LUCIA                               10071120120007316MC12118925                 00000000000000000
A836558810321119262307QULM920125                     QUINTERO$LOPEZ$MARTIN                             10071120120007316MC12118926                 00000000000000000
A836558810333998356209GARD840430                     GARCIA$RODRIGUEZ$DALILA SAMANTHA                  10071120120007316MC12118927                 00000000000000000
A836558810333998320114TAHC830317                     TALAMANTES$HERNANDEZ$MARIA DEL CARMEN             10071120120007316MC12118928                 00000000000000000
A836558810333119393149HEAC920608                     HERNANDEZ$ALTAMIRANO$CYNTHIA JAZMIN               10071120120007316MC12118929                 00000000000000000
A836558810333048763313ZEHY870815                     ZENTENO$HERNANDEZ$YADIRA                          10071120120007316MC12118930                 00000000000000000
A836558810335129441388MOOR940130                     MORENO$OCHOA$RUBI BERENICE                        10071120120007316MC12118931                 00000000000000000
A836558810335129336687MOON930904                     MORENO$OCHOA$NESTOR URIEL                         10071120120007316MC12118932                 00000000000000000
A836558810335978042543DIGI800312                     DIAZ DE LEON$GONZALEZ$IRAZEMA                     10071120120007316MC12118933                 00000000000000000
A836558810333068800110CACH880830                     CASTRUITA$CHAVARRIA$HECTOR IVAN                   10121120120019858MC12118934                 00000000000000000
A836558810333079034477MECJ900422                     MELENDEZ$CALDERA$JOSE JUAN                        10131120120007316MC12118935       081110803513112012300128280
A836558810333129157369CANM910208                     CHAVEZ$NARES$MARIANA                              10141120120007316MC12118936                 00000000000000000
A836558810335947813206SIRH800207                     SIMENTAL$RODRIGUEZ$HERIBERTO                      10141120120007316MC12118937       080629069114112012300165220
A836558810350887112436RIRA710413                     RIVERA$RODRIGUEZ$MARIA DE LOS ANGELES             10141120120007316MC12118938                 00000000000000000
A836558810333887106293EIRG710128                     ESPINO$SANTOS$GILBERTO                            10141120120007316MC12118939                 00000000000000000
A836558810333119357250HERC930528                     HERNANDEZ$DEL REAL$CINDY LIZBETH                  10141120120007316MC12118940                 00000000000000000
A836558810367119123882DAEL910830                     DAVILA$ESCUDERO$LUIS ENRIQUE                      10141120120007316MC12118941                 00000000000000000
A836558810333089301478OERC930307                     ORTEGA$RIOS$CESAR IVAN                            10141120120007316MC12118942                 00000000000000000
A836558810333048848312FALS880321                     FARRERA$LOPEZ$MARIA SELENE                        10141120120007316MC12118943                 00000000000000000
A836558810378068739610CURJ870913                     CRUZ$REYES$JORGE ANTONIO                          10141120120007316MC12118944                 00000000000000000
A836558810335967977014MEGV791218                     MEZA$GALARZA$VLADIMIR                             10141120120007316MC12118945                 00000000000000000
A836558810335129447724ROCN941012                     RODRIGUEZ$CRUZ$NANCY JANETH                       10141120120007316MC12118946                 00000000000000000
A836558810335129334104ROVV930916                     ROMERO$VALADEZ$VICTOR                             10151120120008884MC12118947                 00000000000000000
A836558810333078887701COGJ881003                     CONTRERAS$GARCIA$JAVIER GERARDO                   10151120120008884MC12118948                 00000000000000000
A836558810333079151974VEMP910329                     VAZQUEZ$MACIAS$PERLA YADIRA                       10151120120008884MC12118949                 00000000000000000
A836558810333038744059MAMV871007                     MARTINEZ$MARES$VICTOR GABRIEL                     10151120120008884MC12118950                 00000000000000000
A836558810333078996726RIRR890820                     RIVERA$ROMERO$ROSA DELIA                          10151120120008884MC12118951                 00000000000000000
A836558810333119210806DUMM921109                     DUE벤Z$MENDOZA$MARIBEL                            10151120120008884MC12118952                 00000000000000000
A836558810333917542921CUEC750418                     CUETO$ESPARZA$CESAR                               10151120120008884MC12118953                 00000000000000000
A836558810333068836627LORE880809                     LOPEZ$RODRIGUEZ$EUTIQUIA BERENICE                 10151120120008884MC12118954                 00000000000000000
A836558810332886706293SALJ670412                     SANCHEZ$LOPEZ$JESUS                               10151120120008884MC12118955                 00000000000000000
A836558810333988207081GARF820112                     GARCIA$RODRIGUEZ$FRANCISCO JAVIER                 10151120120008884MC12118956                 00000000000000000
A836558810333018318452RUMJ860101                     RUIZ$MARTINEZ$JUAN JESUS                          10151120120008884MC12118957                 00000000000000000
A836558810333129254471GOAI920926                     GONZALEZ$ARRES$IVAN                               10151120120007316MC12118958                 00000000000000000
A836558810350897339698LEFL731018                     LEMUS$FIGUEROA$LAURA                              10151120120007316MC12118959                 00000000000000000
A836558810335129447575GOPJ940922                     GLORIA$PEREZ$JANETH GRISELDA                      10151120120007316MC12118960                 00000000000000000
A836558810333119306869GAVS930315                     GARCIA$VELAZCO$SAMARIA                            10151120120007316MC12118961                 00000000000000000
A836558810350897364779HASC731016                     HARO$SOSA$CONSUELO                                10151120120007316MC12118962                 00000000000000000
A836558810335998207175VAVR820601                     VALETIN$VASQUEZ$RUBEN                             10151120120007316MC12118963                 00000000000000000
A836558810335068927603FORA890626                     FLORES$RESENDIZ$AMERICA GUADALUPE                 10151120120007316MC12118964                 00000000000000000
A836558810333048657135CICR861218                     CISNEROS$CASTILLO$RENE                            10151120120007316MC12118965                 00000000000000000
A836558810333129240512LUMV920903                     DE LA LUZ$MARTINEZ$VIANEY MONSERRAT               10151120120007316MC12118966                 00000000000000000
A836558810333119012186AAMH901001                     ALCANTAR$MEDINA$HERIBERTO                         10151120120007316MC12118967                 00000000000000000
A836558810333119201938GARD921025                     GARCIA$RIOS$DAVID                                 10151120120007316MC12118968                 00000000000000000
A836558810335957626258VACN760413                     VAZQUEZ$QUEZADA$NORA NOHEMI                       10151120120007316MC12118969                 00000000000000000
A836558810333968064064FAVP800826                     FAVELA$VALDEZ$PETRA                               10151120120007316MC12118970                 00000000000000000
A836558810335947805731QUAO780424                     QUEZADA$ADAME$ORASMO                              10151120120007316MC12118971                 00000000000000000
A836558810332987915868RORJ790722                     RODRIGUEZ$RODRIGUEZ$JOSEFA                        10151120120007316MC12118972                 00000000000000000
A836558810333129438892HEBO940513                     HERNANDEZ$BARRAGAN$OMAR ALEJANDRO                 10151120120007316MC12118973                 00000000000000000
A836558810335109218384MAPJ921028                     MARTINEZ$PLASCENCIA$JESUS ALEJANDRO               10151120120007316MC12118974                 00000000000000000
A836558810333028632967MISE860831                     MIRAMONTES$SALAZAR$ERICKA ELIZABETH               10151120120007316MC12118975                 00000000000000000
A836558810332937616574AIAM780417                     AVILA$ARGUMEDO$MARTIN                             10151120120007316MC12118976                 00000000000000000
A836558810367987304739SALH730512                     SABINO$LOZANO$HERMENEGILDO                        10151120120007316MC12118977                 00000000000000000
A836558810335129439630LURJ940203                     LUJAN$RIVAS$JULIO CESAR                           10151120120007316MC12118978                 00000000000000000
A836558810333119302066CUHL930105                     CRUZ$HERNANDEZ$LUIS RAUL                          10151120120007316MC12118979                 00000000000000000
A836558810333017305757PEHA730711                     PE베$HERNANDEZ$ARLENE                             10191120120007316MC12118980                 00000000000000000
A836558810365018250970SUCL830421                     SUAREZ$CABRERA$LUCERO                             10191120120007316MC12118981                 00000000000000000
A836558810333008288368MUTS841112                     MU벮Z$TOVAR$SELENE PENELOPE                       10191120120007316MC12118982                 00000000000000000
A836558810333109136466PUGC911129                     PULIDO$GUERRERO$JOSE CRUZ                         10191120120007316MC12118983                 00000000000000000
A836558810333109139510MOVI910927                     MONTEJANO$VALLES$IRMA JUDITH                      10191120120007316MC12118984                 00000000000000000
A836558810333119416593FEGJ940526                     FELIX$GUTIERREZ$JULIO CESAR                       10191120120007316MC12118985                 00000000000000000
A836558810333119358696RISA931125                     RIVAS$SOTELO$ALEJANDRO                            10191120120007316MC12118986                 00000000000000000
A836558810333967961682CARO790617                     CHAGOYA$RODRIGUEZ$OSCAR                           10191120120007316MC12118987                 00000000000000000
A836558810333119403195ROAA940318                     ROSAS$ARENAL$ANGEL                                10191120120007316MC12118988                 00000000000000000
A836558810333877101130OOXE710819                     OCHOA$$MARIA ELENA                                10191120120007316MC12118989                 00000000000000000
A836558810333917554652HUGN770916                     HUERTA$GARCIA$NANCY                               10191120120007316MC12118990                 00000000000000000
A836558810333129255833SAAE920912                     SALAIS$ALDACO$EDGAR ADUARDO                       10191120120007316MC12118991                 00000000000000000
A836558810333089231972AOFJ920217                     CALAMACO$ARZOLA$JORGE ALONSO                      10191120120007316MC12118992                 00000000000000000
A836558810333897255296BATM720224                     BARRENA$TORRES$MARIA MAGDALENA                    10191120120007316MC12118993                 00000000000000000
A836558810333089108550MEMS910609                     MU벮Z$MARTINEZ$SOLEDAD                            10191120120007316MC12118994                 00000000000000000
A836558810333058902462GOGI890122                     GONZALEZ$GUERRERO$IVETTE NOHEMI                   10191120120007316MC12118995                 00000000000000000
A836558810333079043833MOGF900817                     MORENO$GARCIA$FERNANDO                            10191120120007316MC12118996                 00000000000000000
A836558810333128928257GURL890717                     GUTIERREZ$RODRIGUEZ$LIBORIO ALONSO                10191120120007316MC12118997                 00000000000000000
A836558810333109280553SAAE920422                     SANTILLAN$ALVAREZ$EDGAR AXEL                      10191120120007316MC12118998                 00000000000000000
A836558810333877123068GOSB710712                     GONZALEZ$SAUCEDO$BLANCA LIDIA                     10191120120008884MC12118999                 00000000000000000
A836558810333927130741AUVO711017                     AGUILAR$VARGAS$OSCAR ENRIQUE                      10191120120008884MC12119000                 00000000000000000
A836558810335998131284MECC810812                     MEJIA$CORRAL$MARIA CONCEPCION                     10191120120008884MC12119001       080214676719112012300103321
A836558810333109265208MOGE920605                     MORONES$GARCIA$ELIA ITYALY                        10191120120008884MC12119002                 00000000000000000
A836558810335078919848AAMJ891101                     ALVAREZ$MAGALLANES$JULIO ADRIAN                   10191120120008884MC12119003                 00000000000000000
A836558810333038652245FOVH860715                     FONSECA$VALLES$HAROLD JOSE                        10191120120008884MC12119004                 00000000000000000
A836558810367947710629EUAJ770115                     EUGENIO$ARAU$JUANA                                10191120120008884MC12119005                 00000000000000000
A836558810332867044128AUSC700223                     AGUILAR$SANCHEZ$MARIA CLARA                       10191120120007316MC12119006                 00000000000000000
A836558810333038561826LARS851029                     LANDEROS$RAMOS$SAN JUANA MARIBEL                  10191120120007316MC12119007                 00000000000000000
A836558810333119365642CAVL930610                     CASAS$VEGA$LORENZO MANUEL                         10191120120007316MC12119008                 00000000000000000
A836558810333089220579OAOC920501                     OLAGUE$ONTIVEROS$CYNTHIA LIZBETH                  10191120120007316MC12119009                 00000000000000000
A836558810331119324759GAFJ931206                     GALLEGOS$FRIAS$JESSICA                            10191120120007316MC12119010                 00000000000000000
A836558810331028422900LEML850711                     DE LEON$MOTA$LOURDES CRISTINA                     10191120120007316MC12119011                 00000000000000000
A836558810333119427574PEAO940926                     PEREZ$ALVARADO$OSCAR DANIEL                       10191120120007316MC12119013                 00000000000000000
A836558810333947775244VATR770808                     VARELA$TALAMANTES$ROSA ISELA                      10191120120007316MC12119014                 00000000000000000
A836558810350887191463ROLE710627                     RODRIGUEZ$LOPEZ$ELVA SOCORRO                      10191120120007316MC12119016                 00000000000000000
A836558810333927644121OICL760116                     ORTIZ$CARDIEL$LORENA                              10191120120007316MC12119017                 00000000000000000
A836558810333018471269PERE850526                     PEREZ$RODRIGUEZ$EDGARDO                           10191120120007316MC12119018                 00000000000000000
A836558810333119250539LORM920328                     LOPEZ$RODRIGUEZ$MARCOS ERNESTO                    10191120120007316MC12119019                 00000000000000000
A836558810333119346915AAML930116                     ATAYDE$MORENO$LUIS FERNANDO                       10191120120007316MC12119020                 00000000000000000
A836558810335129447732VARE941027                     VARELA$REYES$EDGAR OMAR                           10191120120007316MC12119022                 00000000000000000
A836558810333988011269ROHM821028                     ROJAS$HERNANDEZ$MARIA                             10191120120007316MC12119023                 00000000000000000
A836558810333028209998GACE821211                     GARCIA$CASTRO$ESTELA                              10191120120007316MC12119024                 00000000000000000
A836558810333078859981GUVN880909                     GUATZOZON$VIDA베$NAYELI                           10191120120008884MC12119025                 00000000000000000
A836558810335937611362SEMA761101                     SERROS$MARTINEZ$ALFONSO                           10191120120008884MC12119026                 00000000000000000
A836558810333058992976CABI891207                     CASAS$BACA$IRVIN MANUEL                           10191120120025084MC12119027                 00000000000000000
A836558810333038597234SAMJ850216                     SALAS$MADERA$JORGE IVAN                           10191120120021949MC12119028                 00000000000000000
A836558810333069035500CAMM900610                     CAZARES$MEJIA$MANUEL EDUARDO                      10201120120007316MC12119029                 00000000000000000
A836558810333119261940DUGA921221                     DUARTE$GARCIA$ABRAHAM                             10201120120007316MC12119030                 00000000000000000
A836558810333079083045OARM901207                     OCAMPO$RODRIGUEZ$MARCOS OSWALDO                   10201120120007316MC12119031                 00000000000000000
A836558810333109333642HESL930810                     HERNANDEZ$SAUCEDO$LILIA BEATRIZ                   10201120120007316MC12119032                 00000000000000000
A836558810333129134467PEOL911013                     PEDREGON$OLIVAS$LETICIA ARELI                     10201120120007316MC12119033                 00000000000000000
A836558810333129430261CAIS940828                     CASTA벤DA$IBARRA$SAMUEL ENRIQUE                   10201120120007316MC12119034                 00000000000000000
A836558810333069036573MESA900624                     MEDINA$DOLIS$ALFREDO                              10201120120007316MC12119035                 00000000000000000
A836558810333008374838FAGJ830313                     FAVELA$GUTIERREZ$JUAN RODRIGO                     10201120120007316MC12119036                 00000000000000000
A836558810333129491719PASY940920                     PARRA$SOTO$YAQUELINE                              10201120120007316MC12119037                 00000000000000000
A836558810333028801943HEHJ880821                     HERNANDEZ$HERNANDEZ$JUANA                         10201120120007316MC12119038                 00000000000000000
A836558810333068607622VAZF860616                     VAZQUEZ$ZARAGOZA$FLOR CELENE                      10201120120007316MC12119039                 00000000000000000
A836558810333119206101REXG920801                     REYES$XALAS$GABRIELA                              10201120120007316MC12119040                 00000000000000000
A836558810333078908770SELH890808                     SEPULVEDA$LEDEZMA$HECTOR MANUEL                   10201120120007316MC12119041                 00000000000000000
A836558810335129436263PESC940912                     PEREZ$SIMON$CESAR ISRAEL                          10201120120007316MC12119042                 00000000000000000
A836558810333119255686GASR921213                     GARCIA$SANCHEZ$RICARDO                            10201120120007316MC12119043                 00000000000000000
A836558810367987916458SAFA791208                     SALINAS$FLORES$ARTURO                             10201120120007316MC12119044                 00000000000000000
A836558810333058857641TOME880407                     TORRES$MORALES$ERICK                              10201120120007316MC12119045                 00000000000000000
A836558810333079152667ZATL910709                     ZAMUDIO$TARANGO$LUIS ALBERTO                      10201120120007316MC12119046                 00000000000000000
A836558810335129452088RORC940729                     RODRIGUEZ$REYNOSO$CRISTIAN ARMANDO                10201120120007316MC12119047                 00000000000000000
A836558810333008307333CAQM830905                     GARCIA$QUIROGA$MONICA CONSUELO                    10201120120007316MC12119048                 00000000000000000
A836558810333018267600JUGD820615                     JUAREZ$GONZALEZ$DREIDA                            10201120120007316MC12119049                 00000000000000000
A836558810333068886531TEPR880622                     TERRAZAS$PEDROZA$RUTH YANETH                      10201120120007316MC12119050                 00000000000000000
A836558810335129449571GAGB940916                     GALAVIZ$GONZALEZ$BLANCA ABRIL                     10201120120007316MC12119051                 00000000000000000
A836558810333897024940VAAE700411                     VALENCIA$ARAMBULA$EFRAIN                          10201120120008884MC12119052                 00000000000000000
A836558810333119232651EAAE920919                     ESPARZA$ANAYA$ELIZABETH                           10201120120008884MC12119053                 00000000000000000
A836558810333028554955TISG851007                     TRINIDAD$SALAZAR$GUADALUPE ADRIANA                10201120120008884MC12119054                 00000000000000000
A836558810333069055326CAVD900611                     CARMONA$VILLAGOMEZ$DAMARIS ELIZABETH              10201120120008884MC12119055                 00000000000000000
A836558810333976001645ROPE600902                     ROJO$PEREYRA$MARIA ELIZABETH                      10211120120007316MC12119056                 00000000000000000
A836558810333128921682SAHC890929                     SANTIAGO$HERNANDEZ$CARMELA                        10211120120007316MC12119057                 00000000000000000
A836558810333079125325VERG910527                     VENEGAS$RODRIGUEZ$GRISELDA                        10211120120007316MC12119058                 00000000000000000
A836558810333068907469BAFC891104                     BACA$FACIO$CARLOS                                 10211120120007316MC12119059                 00000000000000000
A836558810333109212150REPD920116                     REYES$PEREZ$DANIEL ANGEL                          10211120120007316MC12119060                 00000000000000000
A836558810333099300296SAOS930115                     DE SANTIAGO$ORNELAS$SERGIO                        10211120120007316MC12119061                 00000000000000000
A836558810332957200812VARL721110                     VARGAS$RODRIGUEZ$LEONOR                           10211120120007316MC12119062                 00000000000000000
A836558810333129157708LACN910813                     LAZARIN$CHAPARRO$NIDIA YAZMIN                     10211120120007316MC12119063                 00000000000000000
A836558810333129367836VIAR930705                     VILLALOBOS$AYALA$RAUL                             10211120120007316MC12119064                 00000000000000000
A836558810333947567153JUGV750418                     JUAREZ$GUTIERREZ$VERONICA                         10211120120007316MC12119065                 00000000000000000
A836558810367927310648CORR730106                     COBOS$ROMAN$REYES                                 10211120120007316MC12119066                 00000000000000000
A836558810333987956902GARF791013                     GARCIA$DE LA RIVA$FRANCISCO JAVIER                10211120120007316MC12119067                 00000000000000000
A836558810335957608173FUMG760324                     FUENTES$MORALES$JOSE GUADALUPE                    10211120120007316MC12119068                 00000000000000000
A836558810333008397441REOC850503                     REYES$ORTIZ$MARIA DE LA CRUZ                      10211120120007316MC12119069                 00000000000000000
A836558810333846731710LOCR670215                     LOZANIA$CASTRO$RAFAEL                             10211120120007316MC12119070                 00000000000000000
A836558810333119438456LOMJ940624                     LOPEZ$MARTINEZ$JAZMIN VIVIANA                     10211120120007316MC12119071                 00000000000000000
A836558810333048739594CARS870911                     CABALLERO$REYES$SARAY                             10211120120007316MC12119072                 00000000000000000
A836558810333978126143NAMH810124                     NAPOLES$MINJARES$HUGO                             10211120120007316MC12119073                 00000000000000000
A836558810333129465077CAAJ940420                     CALAMACO$ARZOLA$JAVIER ALEJANDRO                  10211120120008884MC12119074                 00000000000000000
A836558810333129360369MECC930107                     MENDOZA$DE LA CRUZ$CARLOS ALFONSO                 10211120120008884MC12119075                 00000000000000000
A836558810301977709086FALG770924                     FALCON$LIBERATO$GABRIEL GERARDO                   10211120120008884MC12119076                 00000000000000000
A836558810333987505535LEPO751209                     LEYVA$PEREZ$OMAR                                  10211120120008884MC12119077                 00000000000000000
A836558810333058917924VAPJ890102                     VALLES$PASTRANA$JESUS ARTURO                      10211120120008884MC12119078                 00000000000000000
A836558810333128925238CONT890611                     CORDERO$NAVARRETE$TERESA IVONNE                   10211120120021949MC12119079                 00000000000000000
A836558810331886917264MOGL691014                     MORENO$GARCIA$LUIS CARLOS                         10211120120019858MC12119080                 00000000000000000
A836558810333029102697CASB910118                     CAMARILLO$SALINAS$BRENDA MARICRUZ                 10211120120007316MC12119082                 00000000000000000
A836558810333079176914RODR910924                     RODRIGUEZ$DOZAL$RODOLFO                           10211120120007316MC12119083                 00000000000000000
A836558810333058514523POSJ850413                     PORRAS$SOLIS$JUAN CARLOS                          10211120120008884MC12119084                 00000000000000000
A836558810333917465461HOBG780404                     DE LA HOYA$BARRON$GUADALUPE MONSERRAT             10221120120007316MC12119085                 00000000000000000
A836558810335867001543BOPR700704                     BONILLA$PE베$MARIA DEL REFUGIO                    10221120120007316MC12119086                 00000000000000000
A836558810335978028336GOVS800524                     GONZALEZ$VALLES$SUSANA                            10221120120007316MC12119087                 00000000000000000
A836558810364978136337TAAJ820115                     TARANGO$AVITIA$JULIA YAHADIRA                     10221120120007316MC12119088                 00000000000000000
A836558810333058658882SIFE861206                     SILVA$FAVELA$EVELYN AIDEE                         10221120120007316MC12119089                 00000000000000000
A836558810333907351085CAAM730721                     CARDONA$ALVARADO$MA MAGDALENA                     10221120120007316MC12119090                 00000000000000000
A836558810335947800682HEBS780108                     HERNANDEZ$BARRERA$SERGIO                          10221120120007316MC12119091                 00000000000000000
A836558810333008800196GAEJ880413                     GALLEGOS$ESPINOZA$JESUS IVAN                      10221120120007316MC12119092                 00000000000000000
A836558810335978110274OXMN810706                     DE LA O$MEJIA$NELSON IVAN                         10221120120007316MC12119093                 00000000000000000
A836558810331058832085CAMG880201                     CARDENAS$MAA$GERARDO ALFONSO                      10221120120007316MC12119094                 00000000000000000
A836558810333937745132PUMM770721                     PUGA$MARTINEZ$MONICO                              10221120120007316MC12119095                 00000000000000000
A836558810333109177825MOEK911013                     MONTA벤S$ESPARZA$KAREN LIZBETH                    10221120120007316MC12119096                 00000000000000000
A836558810335988236184MOGY830911                     MOLINA$GONZALEZ$YADIRA YANETH                     10221120120007316MC12119097                 00000000000000000
A836558810333947534872CAVR750408                     CASTA벤DA$VELARDE$ROSARIO DE FATIMA               10221120120007316MC12119098                 00000000000000000
A836558810333129427697MUGY940829                     MURGUIA$GONZALEZ$YOLANDA SARAHI                   10221120120007316MC12119099                 00000000000000000
A836558810333078943959BECL891015                     BRETADO$CERVANTES$LUCERO                          10221120120007316MC12119100                 00000000000000000
A836558810333008341068CEMA860626                     CERVANTES$MELENDEZ$ANA MARIA                      10221120120007316MC12119101                 00000000000000000
A836558810333119427848PEGB940510                     PEREZ$GARCIA$BLANCA PAMELA                        10221120120007316MC12119102                 00000000000000000
A836558810333089051354PAMO900915                     PARADA$MARES$OMAR ALONSO                          10221120120007316MC12119103                 00000000000000000
A836558810335129442782VAVE940903                     VALLES$VELAZQUEZ$EMILIO                           10221120120007316MC12119104                 00000000000000000
A836558810333927245929AASJ740515                     ALVARADO$SOTO$JUAN                                10221120120007316MC12119105                 00000000000000000
A836558810331088801597BUDA880914                     BUENO$DURAN$ADOLFO                                10221120120008884MC12119106                 00000000000000000
A836558810333907445119CXGE740112                     CORDERO$GUERRERO$EDUARDO                          10221120120007316MC12119107                 00000000000000000
A836558810335129445090EIMG940928                     ESPINOZA$MU벮Z$GABRIELA                           10221120120007316MC12119108                 00000000000000000
A836558810333057911696DOMC790716                     DOMINGUEZ$MARTINEZ$CARMELITA                      10221120120007316MC12119109                 00000000000000000
A836558810333129272713LOGK921124                     LOPEZ$GARCIA$KARINA                               10221120120007316MC12119110                 00000000000000000
A836558810333038743663GAPN870606                     GASPAR$PEREZ$NORBERTO                             10221120120007316MC12119111                 00000000000000000
A836558810333977518605FOCR750522                     FLORES$CORTES$RITO                                10221120120007316MC12119112                 00000000000000000
A836558810333856945903PEDR690609                     PEREZ$DONATO$REYNA ISABEL                         10221120120007316MC12119113                 00000000000000000
A836558810335968077851GADD820311                     GALARZA$DIAZ$DULCE MARIA                          10221120120007316MC12119114                 00000000000000000
A836558810335129452203SOSJ940203                     SOTO$SALAZAR$JAZIEL ALEJANDRO                     10221120120007316MC12119115                 00000000000000000
A836558810335129416414POJD941019                     PORRAS$JASSO$DANIEL                               10221120120007316MC12119116                 00000000000000000
A836558810333038567799JIME850128                     JIMENEZ$MATEOS$ELISA FELICIA                      10221120120007316MC12119117                 00000000000000000
A836558810335967924198RIPZ841101                     RIVERA$PAYAN$ZULEMA CONCEPCION                    10221120120008884MC12119119                 00000000000000000
A836558810333058684292LOWN860813                     LOPEZ$WILSON$NALLELY                              10191120120007316MK10070036                 00000000000000000
A836558810331937833593EOCI780731                     ESCOBEDO$CHAVEZ$IRMA                              10221120120007316MK11030448                 00000000000000000
A836558810333886764035BACR670416                     BARBA$CASO$ROSA EMMA                              10221120120007316MK11111062                 00000000000000000
A836558810333108817132BAVK880718                     BARRERAS$VEGA$KAREN JEANETTE                      10011120120020904Q031                       00000000000000000
A836558810333988251550ZARG820806                     ZAVALA$ROJAS$JOSE GERARDO                         10011120120034839Q032                       00000000000000000
A836558810333088719159AUPJ870622                     AGUILAR$PEREZ$JORGE DANIEL                        10011120120024387Q033                       00000000000000000
A836558810333108925307AAOJ890909                     ALVAREZ$OLVERA$JESUS ANTONIO                      10011120120020904Q034                       00000000000000000
A836558810335917433068CADJ741010                     CARDONA$DUARTE$JUAN FRANCISCO                     10011120120015678Q035                       00000000000000000
A836558810335109207346HEAD920429                     HERNANDEZ$ARRIETA$DIANA CRISTINA                  10011120120020904Q036                       00000000000000000
A836558810335947717704SAGA770620                     SANDOVAL$GALVAN$ADRIAN                            10011120120015678Q037                       00000000000000000
A836558810333058311508CABL831214                     CASTA벤DA$BUENO$LUISA BERENICE                    10051120120015678Q038                       00000000000000000
A836558810335129340408CADJ930408                     CARDONA$DUARTE$JUAN CARLOS                        10081120120012193Q039                       00000000000000000
A836558810335129448532CISB940706                     CISNEROS$SANDOVAL$BRENDA GRACIELA                 10131120120011666Q040                       00000000000000000
